:020000040800F2
:1000000000000220BD2D00086D2A00086F2A00089C
:10001000712A0008732A0008752A000800000000F1
:10002000000000000000000000000000772A000827
:10003000792A0008000000007B2A00087D2A0008B9
:100040000D2E00080D2E00080D2E00080D2E0008A4
:100050000D2E00080D2E00080D2E00080D2E000894
:100060000D2E00080D2E00080D2E00080D2E000884
:100070000D2E00080D2E00080D2E00080D2E000874
:10008000852A0008952A00080D2E000800000000AF
:100090000000000000000000000000000D2E00081D
:1000A0000D2E00080D2E00080D2E00080D2E000844
:1000B000A52A0008B52A00080D2E00080D2E0008FC
:1000C0000D2E00080D2E00080D2E00080D2E000824
:1000D000C52A00080D2E0008D52A000800000000DF
:1000E0000D2E00080D2E00080D2E00080000000047
:1000F0000000000000000000000000000D2E0008BD
:10010000000000000D2E00080D2E00080D2E000826
:1001100000000000000000000000000000000000DF
:100120000D2E00080D2E00080D2E00080D2E0008C3
:100130000D2E00080000000000000000000000007C
:100140000000000000000000000000000D2E00086C
:100150000D2E00080D2E00080D2E00080D2E000893
:100160000D2E00080D2E0008000000000000000009
:10017000000000000000000000000000000000007F
:10018000000000000D2E000800000000000000002C
:080190000D2E00080D2E0008E1
:1001980053B94AB9002908BF00281CBF4FF0FF31E6
:1001A8004FF0FF3000F00CB8ADF1080C6DE904CE4B
:1001B80002F02AFEDDF804E0DDE9022304B070470E
:1001C800704700BF0348044B834202D0034B03B17E
:1001D8001847704724000020240000200000000079
:1001E8000548064B1B1AD90F01EBA301491002D091
:1001F800034B03B118477047240000202400002057
:100208000000000010B5064C237843B9FFF7DAFF69
:10021800044B13B10448AFF300800123237010BDD1
:1002280024000020000000009832000808B5054BA3
:100238001BB105490548AFF30080BDE80840FFF74A
:10024800CFBF00BF0000000028000020983200083F
:1002580010B504460E4B1A784FF47A73B3FBF2F3D9
:100268000C4A1068B0FBF3F000F0A8F868B90F2C3E
:1002780001D901200AE0002221464FF0FF3000F0AA
:100288007FF8054B1C60002000E0012010BD00BF76
:10029800000000201C0000200400002008B50B4BC3
:1002A8001A6842F400721A601A6842F480621A608E
:1002B8001A6842F480721A60032000F04FF80F2089
:1002C800FFF7C6FF02F0B2FB002008BD003C024069
:1002D800034A1168034B1B780B441360704700BF37
:1002E8004000002000000020014B1868704700BF44
:1002F80040000020002808DB0901C9B200F1604075
:1003080000F5614080F80013704700F00F00090104
:10031800C9B2014B1954704714ED00E000B500F064
:100328000700C0F1070CBCF1040F28BF4FF0040C04
:10033800031D062B0FD9C31E4FF0FF3E0EFA0CF01B
:1003480021EA000199400EFA03FE22EA0E0241EA70
:1003580002005DF804FB0023EEE70000074AD368BB
:1003680023F4E0631B041B0C000200F4E060034369
:1003780043F0BF6343F40033D360704700ED00E0FF
:1003880010B50446054BD868C0F30220FFF7C6FF36
:1003980001462046FFF7AEFF10BD00BF00ED00E0AC
:1003A800002807DB00F01F02400901239340024A9E
:1003B80042F82030704700BF00E100E00138B0F19A
:1003C800807F0BD24FF0E0235861054AF02182F874
:1003D80023100020986107221A6170470120704796
:1003E80000ED00E030B405682C6824F480242C600B
:1003F800046863608368402B05D0036899600368CC
:10040800DA6030BC704703689A600368D960F8E71F
:1004180010B40368D9B210390B4AA2FB0142120981
:100428000A4CA25CC2655F2908D923F47F7323F0C4
:10043800030304338365806D10BC704723F47F7316
:1004480023F003038365F6E7ABAAAAAAB032000833
:10045800836A826992B9012B0AD0022B02D00BB1B0
:1004680000207047C36A13F0807F28D100207047AE
:10047800C36AB3F1C07F24D000207047B2F5005F93
:1004880009D0022B25D9032B25D1C36A13F0807F0D
:1004980023D100207047032B03D8DFE803F01404AE
:1004A800140A00207047C36A13F0807F0DD1002022
:1004B8007047C36AB3F1C07F09D00020704701209C
:1004C80070470120704701207047012070470120C4
:1004D80070470120704700207047012070470000D6
:1004E80070B50446FFF700FF002C5BD005460223D9
:1004F80084F83530002384F834302268136823F0F8
:100508000103136023681A6812F0010F0AD0FFF77D
:10051800EBFE431B052BF5D920236365032084F8E4
:10052800350070BD1A68204911406268A06802430E
:10053800E06802432069024360690243A0690243FC
:10054800E0690243206A02430A43616A04291ED013
:100558001A602668756925F00705636A1D43042B30
:1005680007D1A36A1D43E36A1BB12046FFF770FF5A
:1005780090B975612046FFF74BFFE26D3F2393402A
:10058800836000206065012384F83530C9E7E16A9B
:10059800206B01430A43DBE740236365012084F8AD
:1005A8003500BEE70120BCE73F8010F038B50446AF
:1005B800856D90F8340001282BD0012084F8340090
:1005C80094F83500C0B2012804D0002384F83430F0
:1005D800022038BD022084F83500002060652046DE
:1005E800FFF700FFE26D3F239340AB60226813687A
:1005F80043F016031360236C23B12268136843F099
:10060800080313602268136843F001031360002095
:10061800DFE70220DDE770B50446866DFFF764FE6C
:1006280094F83530DBB2022B06D0802363650023B3
:1006380084F83430012070BD05462268136823F021
:10064800160313602268536923F080035361236CF7
:10065800E3B12268136823F0080313602268136863
:1006680023F00103136023681B6813F0010F11D0F6
:10067800FFF73AFE431B052BF5D9202363650320BA
:1006880084F83500002384F83430D4E7A36C002BB9
:10069800DFD1E3E7E26D3F239340B360012384F8A1
:1006A8003530002084F83400C5E790F83530DBB2E7
:1006B800022B03D08023436501207047052380F86F
:1006C80035300268136823F0010313600020704777
:1006D800F0B583B0044600230193724B1D68724B3A
:1006E800A3FB0535AD0A876D3E68C26D08239340AC
:1006F800334210D003681A6812F0040F0BD01A683E
:1007080022F004021A60C26D08239340BB60436D57
:1007180043F001034365E26D01239340334209D05E
:100728002268526912F0800F04D0BB60636D43F0F9
:1007380002036365E26D04239340334209D02268C3
:10074800126812F0020F04D0BB60636D43F004031B
:100758006365E26D10239340334224D02268126807
:1007680012F0080F1FD0BB6023681A6812F4802F9C
:100778000DD01B6813F4002F04D1236C9BB12046C5
:10078800984710E0A36C73B1204698470BE01A68AD
:1007980012F4807F03D11A6822F008021A60236CD1
:1007A8000BB120469847E26D20239340334255D041
:1007B8002268126812F0100F50D0BB6094F83530E0
:1007C800DBB2052B0ED023681A6812F4802F33D0C1
:1007D8001B6813F4002F2AD1636C002B3ED02046EF
:1007E80098473BE02268136823F0160313602268D9
:1007F800536923F080035361236CA3B12268136803
:1008080023F008031360E26D3F239340BB6001238C
:1008180084F83530002384F83430236D002B3FD022
:10082800204698473CE0A36C002BE7D1EBE7E36B4D
:10083800A3B12046984711E01A6812F4807F09D1C5
:100848001A6822F010021A60012384F83530002358
:1008580084F83430E36B0BB120469847636DFBB1E5
:10086800636D13F0010F17D0052384F83530226823
:10087800136823F001031360019B01330193AB421A
:1008880004D823681B6813F0010FF5D1012384F8FD
:100898003530002384F83430E36C0BB12046984798
:1008A80003B0F0BD1C000020B5814E1B00230F2BA8
:1008B80000F2DA8030B583B068E085684FEA430E0D
:1008C800032404FA0EF425EA0405CC6804FA0EF4AD
:1008D8002C438460446824EA02044A68C2F3001284
:1008E8009A40224342605FE0DC08083450F8242034
:1008F80003F00705AD004FF00F0E0EFA05FE22EAD1
:100908000E0E0A69AA4042EA0E0240F824205FE06F
:10091800042200E0002202FA0EF22A430234534D68
:1009280045F82420524A94686FEA0C0224EA0C0520
:10093800D1F804E01EF4801F01D04CEA04054C4CA9
:10094800A560E46802EA0405D1F804E01EF4001F7B
:1009580001D04CEA0405464CE560646802EA0405E7
:10096800D1F804E01EF4003F01D04CEA0405404CE5
:100978006560246822404D6815F4803F01D04CEA38
:1009880004023B4C226001330F2B6BD801229A40A2
:100998000C6804EA020C32EA0404F4D14C6804F04E
:1009A8000304013C012C88D94A6802F00302032A97
:1009B80009D0C4685D000322AA4024EA02048A68B8
:1009C800AA402243C2604A6802F00302022A8BD07E
:1009D80004684FEA430E032202FA0EF224EA0204E4
:1009E8004A6802F0030202FA0EF2224302604A68E1
:1009F80012F4403FC7D0002201921E4A546C44F4BE
:100A080080445464526C02F480420192019A9C081A
:100A1800A51C164A52F8255003F0030E4FEA8E0E15
:100A28000F2202FA0EF225EA0205134A90423FF419
:100A380071AF02F5806290420ED002F5806290425A
:100A48000CD002F5806290420AD002F58062904292
:100A58003FF45EAF07225EE701225CE702225AE715
:100A6800032258E703B030BD704700BF003801408B
:100A7800003C014000380240000002400AB1816198
:100A88007047090481617047436901EA030221EA5A
:100A9800030141EA0241816170470000002800F02B
:100AA800E08170B582B00446036813F0010F3BD0B3
:100AB8009F4B9B6803F00C03042B2CD09C4B9B682A
:100AC80003F00C03082B21D06368B3F5803F4FD0A7
:100AD800B3F5A02F52D0964B1A6822F480321A60D0
:100AE8001A6822F480221A606368002B50D0FFF73E
:100AF800FBFB05468E4B1B6813F4003F14D1FFF730
:100B0800F3FB401B6428F5D90320B1E1884B5B68EF
:100B180013F4800FD8D0864B1B6813F4003F03D022
:100B28006368002B00F09F81236813F0020F54D0F4
:100B38007F4B9B6813F00C0F3ED07D4B9B6803F0F6
:100B48000C03082B33D0E368002B68D0794B0122C3
:100B58001A60FFF7C9FB0546754B1B6813F0020FB7
:100B680054D1FFF7C1FB401B0228F5D903207FE1D0
:100B78006F4A136843F480331360B5E76C4B1A6807
:100B880042F480221A601A6842F480321A60ABE795
:100B9800FFF7AAFB0546664B1B6813F4003FC3D05A
:100BA800FFF7A2FB401B6428F5D9032060E1604BE6
:100BB8005B6813F4800FC6D15D4B1B6813F0020FFE
:100BC80003D0E368012B40F05081594A136823F0A1
:100BD800F803216943EAC1031360236813F0080F7F
:100BE80042D063696BB3534B0122C3F8802EFFF7E1
:100BF8007BFB05464E4B5B6F13F0020F34D1FFF7BA
:100C080073FB401B0228F5D9032031E1484A1368D9
:100C180023F0F803216943EAC1031360DDE7454B7C
:100C280000221A60FFF760FB0546414B1B6813F072
:100C3800020FD2D0FFF758FB401B0228F5D903203A
:100C480016E13C4B0022C3F8802EFFF74DFB05460A
:100C5800374B5B6F13F0020F06D0FFF745FB401BC5
:100C68000228F5D9032003E1236813F0040F77D095
:100C78002F4B1B6C13F0805F33D1002301932C4B57
:100C88001A6C42F080521A641B6C03F08053019373
:100C9800019B0125284B1B6813F4807F23D0A36890
:100CA800012B34D0052B38D0214B1A6F22F00102CA
:100CB8001A671A6F22F004021A67A368002B3DD046
:100CC800FFF712FB06461A4B1B6F13F0020F46D1B3
:100CD800FFF70AFB801B41F288339842F3D90320BF
:100CE800C6E00025D6E7144A136843F480731360FE
:100CF800FFF7FAFA0646104B1B6813F4807FCED133
:100D0800FFF7F2FA801B0228F5D90320B0E0084A61
:100D1800136F43F001031367CFE7054B1A6F42F0D7
:100D280004021A671A6F42F001021A67C5E700BF8A
:100D3800003802400000474200700040FFF7D4FA34
:100D48000646524B1B6F13F0020F08D0FFF7CCFA80
:100D5800801B41F288339842F3D9032088E0EDB92B
:100D6800A369002B00F08380484A926802F00C02C5
:100D7800082A51D0022B17D0454B00221A66FFF7DC
:100D8800B3FA0446414B1B6813F0007F42D0FFF7CB
:100D9800ABFA001B0228F5D9032069E03B4A136C23
:100DA80023F080531364DBE7394B00221A66FFF700
:100DB8009BFA0546354B1B6813F0007F06D0FFF7FA
:100DC80093FA401B0228F5D9032051E0E369226A0F
:100DD8001343626A43EA8213A26A5208013A43EA59
:100DE8000243E26A43EA0263284A5360284B01221D
:100DF8001A66FFF779FA0446244B1B6813F0007F44
:100E080006D1FFF771FA001B0228F5D903202FE05D
:100E180000202DE000202BE0012B2BD01B4B5B6822
:100E280003F48001E269914226D103F03F02216A6E
:100E38008A4223D1616A47F6C0721A40B2EB811F19
:100E48001ED103F44031A26A5208013AB1EB024FB5
:100E580018D103F07063E26AB3EB026F14D100207B
:100E680006E001207047012002E0012000E0002098
:100E780002B070BD0120FBE70120F9E70120F7E788
:100E88000120F5E70120F3E70120F1E700380240EF
:100E98000000474208B5334B9B6803F00C03042B52
:100EA8005BD0082B5BD12F4B5A6802F03F025B687E
:100EB80013F4800F2CD02B4B5868C0F388104FEADE
:100EC800401CBCEB000C6EEB0E0E4FEA8E1343EA8F
:100ED8009C634FEA8C11B1EB0C0163EB0E03DB0052
:100EE80043EA5173C90011EB000C43F100035902A6
:100EF80000234FEA4C2041EADC51FFF749F9194B2E
:100F08005B68C3F3014301335B00B0FBF3F027E0F8
:100F1800144B5868C0F388104FEA401CBCEB000C17
:100F28006EEB0E0E4FEA8E1343EA9C634FEA8C1168
:100F3800B1EB0C0163EB0E03DB0043EA5173C9000C
:100F480011EB000C43F10003990200234FEA8C20B7
:100F580041EA9C51FFF71CF9D1E7034800E0034838
:100F680008BD00BF0038024000127A000024F400D7
:100F7800002800F09B8070B50D4604464F4B1B6857
:100F880003F007038B4208D2CBB24C4A13701368A4
:100F980003F007038B4240F08B80236813F0020FA5
:100FA80017D013F0040F04D0454A936843F4E05374
:100FB8009360236813F0080F04D0414A936843F400
:100FC800604393603E4A936823F0F003A1680B43A3
:100FD8009360236813F0010F32D06368012B21D08E
:100FE8009A1E012A25D9364A126812F0020F61D0DA
:100FF80033498A6822F0030213438B60FFF774F9C0
:1010080006462F4B9B6803F00C036268B3EB820F14
:1010180016D0FFF769F9801B41F288339842F0D95E
:10102800032042E0264A126812F4003FE0D1012072
:101038003BE0234A126812F0007FD9D1012034E046
:101048001E4B1B6803F00703AB4207D9EAB21B4BE0
:101058001A701B6803F00703AB422DD1236813F005
:10106800040F06D0164A936823F4E053E1680B4353
:101078009360236813F0080F07D0114A936823F48C
:101088006043216943EAC1039360FFF703FF0C4BF8
:101098009B68C3F303130B4AD35CD8400A4B186010
:1010A8000A4B1868FFF7D4F8002070BD012070477C
:1010B8000120FAE70120F8E70120F6E7003C0240AA
:1010C80000380240C83200081C000020040000203C
:1010D800014B1868704700BF1C00002008B5FFF7D7
:1010E800F7FF044B9B68C3F38223034AD35CD840C1
:1010F80008BD00BF00380240C032000808B5FFF73D
:10110800E7FF044B9B68C3F34233034AD35CD840E0
:1011180008BD00BF00380240C03200082DE9F04782
:1011280082B00546884617461E46FFF7DDF80A9B3B
:101138001B1A03EB0609FFF7D7F88246284B1B68F2
:10114800C3F3CB3309FB03F301932B689C6838EA9C
:1011580004040CBF01230023BB423DD0B6F1FF3F7E
:10116800F3D0FFF7C1F8A0EB0A00484507D2019A6F
:1011780002B14A46019B013B01939146E5E72A6883
:10118800536823F0E00353606B68B3F5827F0BD09C
:10119800AB6AB3F5005F14D0012385F85130002302
:1011A80085F85030032018E0AB68B3F5004F02D043
:1011B800B3F5806FECD12A68136823F040031360FD
:1011C800E6E72A68136823F4005313602A68136853
:1011D80043F400531360DFE7002002B0BDE8F08756
:1011E8001C00002010B584B00446164B1868164B36
:1011F800A3FB0030400D4FF47A7303FB00F003901B
:101208006368B3F5827F0BD0039BBBB1039B013BA3
:10121800039323689B6813F0800FF5D100200EE03C
:1012280000920B46002280212046FFF777FF30B15D
:10123800636D43F020036365032000E0002004B0E1
:1012480010BD00BF1C000020819F5E1600285AD0E8
:1012580010B50446436A33B94368B3F5827F05D0B5
:101268000023C36102E00023036143610023A362FA
:1012780094F85130002B40D0022384F85130226872
:10128800136823F040031360636803F48273A26851
:1012980002F404421343E26802F400621343226931
:1012A80002F002021343626902F001021343A269C9
:1012B80002F400721343E26902F038021343226A0F
:1012C80002F080021343A26A02F400522168134319
:1012D8000B60638B03F00403626A02F0100221685A
:1012E80013434B602268D36923F40063D361002061
:1012F8006065012384F8513010BD84F850302046D1
:1013080001F054FBB8E7012070472DE9F04383B0A2
:101318001D4690F85030012B00F0D18004468846D5
:101328009146012380F85030FEF7DEFF074694F817
:101338005160F6B2012E40F0AF80B8F1000F00F016
:10134800AC80B9F1000F00F0A880032384F8513075
:1013580000236365C4F83080A4F83490A4F836906C
:10136800A363A387E38763642364A368B3F5004F8B
:101378001ED023681A6812F0400F03D11A6842F091
:1013880040021A60E368B3F5006F1CD0636813B1BC
:10139800B9F1010F52D1226B236812781A73236BAB
:1013A80001332363E38E9BB2013B9BB2E38645E0A6
:1013B8002268136823F0400313602268136843F41B
:1013C80080431360D5E7636813B1B9F1010F16D1F3
:1013D800226B23681288DA60236B02332363E38E5F
:1013E8009BB2013B9BB2E38609E0FEF77DFFC01B81
:1013F800A84202D3B5F1FF3F59D1002D59D0E38E51
:101408009BB2002B33D023689A6812F0020FECD0FD
:10141800226B1288DA60236B02332363E38E9BB25C
:10142800013B9BB2E386EAE7FEF75EFFC01BA842DA
:1014380002D3B5F1FF3F3ED1002D3ED0E38E9BB2E3
:10144800ABB123689A6812F0020FEDD0226B1278C4
:101458001A73236B01332363B4F836C01FFA8CFC6C
:101468000CF1FF3C1FFA8CFCA4F836C0E6E73A46BC
:1014780029462046FFF7B6FE08B120236365A36816
:1014880033B901932368DA6801929B680193019B41
:10149800636D13B9002600E00226012384F8513059
:1014A800002384F85030304603B0BDE8F0830326AB
:1014B800F3E70326F1E70326EFE70326EDE7022625
:1014C800F1E7704710B584B0044602685168936824
:1014D80003F04100012867D013F0020F02D011F089
:1014E800800F68D113F4B07F68D011F0200F65D059
:1014F80013F0400F0FD094F85100C0B203285FD00A
:10150800606D40F00400606500200090D068009095
:1015180090680090009813F0200F0CD0606D40F098
:10152800010060650020029090680290106820F029
:1015380040001060029A13F4807F09D0636D43F075
:10154800080363650023039323689B680393039B45
:10155800636D002B32D02268536823F0E003536098
:10156800012384F8513011F0030F31D022685368F9
:1015780023F003035360E36C4BB1174A1A65E06C20
:10158800FFF793F818B1636D43F040036365A36CEC
:10159800A3B1114A1A65A06CFFF787F870B1636DA3
:1015A80043F04003636509E011F0400F94D0236CC9
:1015B8002046984702E0636C2046984704B010BD67
:1015C80000230193D368019393680193019BF5E786
:1015D8002046FFF776FFF1E7E515000808B5806BB0
:1015E8000023C387C386FFF76CFF08BD10B4036AE6
:1015F800046A24F001040462846924F0F00C4CEAC3
:10160800021223F00A030B438261036210BC704785
:1016180010B4036A23F0100303628469036A24F494
:10162800704C4CEA023223F0A00343EA01138261B2
:10163800036210BC7047836823F070030B4343F0C8
:10164800070383607047000090F83D30DBB2012B40
:101658002FD1022380F83D300268D36843F001039C
:10166800D3600368154A934218D0B3F1804F15D060
:10167800A2F57C42934211D002F5806293420DD0CC
:1016880002F58062934209D002F59A32934205D05E
:101698001A6842F001021A60002070479A6802F046
:1016A8000702062A07D01A6842F001021A600020D1
:1016B8007047012070470020704700BF00000140BC
:1016C800704770477047704710B5044603681A6939
:1016D80012F0020F11D0DA6812F0020F0DD06FF07D
:1016E80002021A610123037703689B6913F0030F51
:1016F80070D0FFF7E6FF0023237723681A6912F0FA
:10170800040F12D0DA6812F0040F0ED06FF0040242
:101718001A610223237723689B6913F4407F5FD003
:101728002046FFF7CEFF0023237723681A6912F0BB
:10173800080F12D0DA6812F0080F0ED06FF0080206
:101748001A61042323772368DB6913F0030F4ED053
:101758002046FFF7B6FF0023237723681A6912F0A3
:10176800100F12D0DA6812F0100F0ED06FF01002BE
:101778001A61082323772368DB6913F4407F3DD07F
:101788002046FFF79EFF0023237723681A6912F08B
:10179800010F03D0DA6812F0010F36D123681A69F5
:1017A80012F0800F03D0DA6812F0800F34D123686A
:1017B8001A6912F0400F03D0DA6812F0400F32D1E4
:1017C80023681A6912F0200F03D0DA6812F0200F8C
:1017D80030D110BDFFF774FF2046FFF773FF8AE78B
:1017E8002046FFF76DFF2046FFF76CFF9BE720467A
:1017F800FFF766FF2046FFF765FFACE72046FFF7D7
:101808005FFF2046FFF75EFFBDE76FF001021A6138
:10181800204600F02BFFC1E76FF080021A612046D6
:1018280000F055F9C3E76FF040021A612046FFF750
:101838004AFFC5E76FF020021A61204600F046F91A
:10184800C7E700000368254A90420ED0B0F1804FE8
:101858000BD0A2F57C42904207D002F580629042FC
:1018680003D002F58062904203D123F070034A68E6
:1018780013431A4A90421AD0B0F1804F17D0A2F5FC
:101888007C42904213D002F5806290420FD002F55C
:10189800806290420BD002F59A32904207D002F54E
:1018A8008062904203D002F58062904203D123F413
:1018B8004073CA68134323F080034A6913430360E3
:1018C8008B68C3620B688362044B984202D0012381
:1018D800436170470B690363F9E700BF00000140EB
:1018E80040B310B5044690F83D30F3B1022384F8B4
:1018F8003D30214651F8040BFFF7A4FF012384F87B
:10190800463084F83E3084F83F3084F8403084F81C
:10191800413084F8423084F8433084F8443084F805
:10192800453084F83D30002010BD80F83C3001F08F
:1019380071F9DBE70120704710B4846824F47F4C08
:1019480042EA03220A4342EA0C02826010BC704752
:1019580090F83C30012B78D010B50446012380F86C
:101968003C30022380F83D300268936823F47F43BB
:1019780023F0770393600B68602B4CD029D8402B59
:1019880054D00CD9502B22D1CA6849680068FFF797
:101998002DFE50212068FFF74EFE002005E0202B89
:1019A8000DD009D9302B0AD00120012384F83D300D
:1019B800002384F83C3010BD0BB1102B05D119461B
:1019C8002068FFF738FE0020EFE70120EDE701204F
:1019D800EBE7B3F5805F34D0B3F5005F0CD1CB688B
:1019E8004A6889680068FFF7A7FF2268936843F48C
:1019F800804393600020D8E7702B24D1CB684A68D5
:101A080089680068FFF798FF2268936843F07703B6
:101A180093600020C9E7CA6849680068FFF7F8FDC5
:101A280060212068FFF707FE0020BEE7CA68496802
:101A38000068FFF7DBFD40212068FFF7FCFD002070
:101A4800B3E70020B1E70120AFE7022070470000AC
:101A580090F83C20012A34D010B40346012280F8C3
:101A68003C20022280F83D2002685068946820F0EB
:101A7800700C086840EA0C0050601A6812488242EC
:101A880012D0B2F1804F0FD0A0F57C4082420BD02B
:101A980000F58060824207D000F58060824203D062
:101AA80000F59A30824204D124F080044968214329
:101AB8009160012283F83D20002083F83C0010BC8F
:101AC80070470220704700BF000001407047704710
:101AD800026802F10C0353E8003F23F0C0030C3204
:101AE80042E800310029F3D1202380F83D307047C7
:101AF800026802F10C0353E8003F23F490730C32A0
:101B080042E800310029F3D1026802F1140353E8D6
:101B1800003F23F00103143242E800310029F3D1D9
:101B2800036B012B05D0202380F83E30002303638C
:101B38007047026802F10C0353E8003F23F01003DA
:101B48000C3242E800310029F3D1ECE790F83D303F
:101B5800DBB2212B01D0022070478368B3F5805F88
:101B680017D0036A5A1C02621A7803685A60C38C39
:101B78009BB2013B9BB2C3844BB90268D36823F084
:101B88008003D3600268D36843F04003D360002029
:101B980070470369002BE4D1036A1B880268C3F30A
:101BA80008035360036A02330362E0E710B5044692
:101BB8000268136923F44053C1680B4313618368B7
:101BC80002691A4343691A43C3691A430168CB6817
:101BD80023F4164323F00C031343CB6002685369C4
:101BE80023F4407381690B4353610368314A93427C
:101BF80006D002F58062934202D0FFF76FFA01E047
:101C0800FFF77CFAE369B3F5004F29D000210318E8
:101C180049411B1841F10001C90041EA5371DB0039
:101C2800181863684FEA83024FEA937341F1000181
:101C3800FEF7AEFA204AA2FB00314909642303FBF0
:101C480011031B013233A2FB03235B0903F0F002EB
:101C580002EB011203F00F03216813448B6010BDDF
:101C68000023021843EB0301121841F10001C900D7
:101C780041EA5271D200101841F1000162689218CD
:101C88005B41FEF785FA0C4AA2FB0031490964233F
:101C980003FB1103DB003233A2FB03235B095A0069
:101CA80002F4F87202EB011203F0070321681344EF
:101CB8008B60D4E7001001401F85EB5158B310B575
:101CC800044690F83D300BB3242384F83D30226855
:101CD800D36823F40053D3602046FFF767FF2268D8
:101CE800136923F4904313612268536923F02A038C
:101CF80053612268D36843F40053D3600020206402
:101D0800202384F83D3084F83E3010BD80F83C3004
:101D180000F0CCFFD8E701207047000038B5134623
:101D280090F83D20D2B2202A37D10446002936D077
:101D3800002B36D090F83C20012A34D0012280F8BC
:101D48003C2001628384C38400250564212280F835
:101D58003D20426B1548D063626B15481064626B76
:101D68001448D064626B156522680432606BFEF714
:101D78001DFC23686FF040021A6084F83C5022680A
:101D880002F1140353E8003F43F08003143242E8A1
:101D980000310029F3D1002000E0022038BD0120E5
:101DA800FCE70120FAE70220F8E700BF451E00081B
:101DB800AD1E0008BB1E000810B5044603685A692A
:101DC80090F83D30DBB2212B0AD023685A6902F023
:101DD800400294F83E30DBB2222B19D0002010BD0F
:101DE80002F08002002AF0D0226802F1140353E8BE
:101DF800003F23F08003143242E800310029F3D178
:101E0800606B08B1FEF707FC2046FFF761FEDCE7D0
:101E1800002AE3D0226802F1140353E8003F23F0BC
:101E28004003143242E800310029F3D1A06B08B115
:101E3800FEF7F1FB2046FFF75BFECFE708B5034648
:101E4800806B1B681B6813F4807F1AD10023C3843E
:101E5800026802F1140353E8003F23F080031432B0
:101E680042E800310029F3D1026802F10C0353E87B
:101E7800003F43F040030C3242E800310029F3D11F
:101E880008BD00F06EFDFBE708B50168CA6822F0DE
:101E98004002CA60202280F83D2000F062FD002048
:101EA80008BD704708B5806BFFF7FBFF08BD70479A
:101EB800704710B5846B23685A6994F83D30DBB2DB
:101EC800212B10D023685A6902F0400294F83E3062
:101ED800DBB2222B11D0236C43F01003236420467D
:101EE800FFF7E6FF10BD02F08002002AEAD00023C7
:101EF800E3842046FFF7ECFDE4E7002AEBD000235B
:101F0800E3852046FFF7F4FDE5E708B5806B00237D
:101F1800C385C384FFF7CCFF08BD704790F83E30F7
:101F2800DBB2222B67D18368B3F5805F4DD0826A1C
:101F3800B3F5805F04D0002B54D10369002B51D135
:101F480003685B681370836A01338362C38D9BB235
:101F5800013B9BB2C385002B4FD100B583B002680B
:101F6800D36823F02003D3600268D36823F4807316
:101F7800D3600268536923F001035361202380F87A
:101F88003E30036B012B33D100230363026802F157
:101F98000C0353E8003F23F010030C3242E80031F1
:101FA8000029F3D103681A6812F0100F06D0002236
:101FB80001921A6801925B680193019B818DFFF77A
:101FC800ACFF002003B05DF804FB0269002AAED123
:101FD800826A03685B68C3F308031380836A023369
:101FE8008362B3E703685B6803F07F031370AAE7B3
:101FF80000F0B6FCE5E702207047002070470000BB
:1020080010B582B0044602681368D068516913F0AD
:102018000F0F09D113F0200F0CD010F0200F09D0AA
:102028002046FFF77BFF16E011F0010115D110F4EF
:10203800907F12D1216B012979D013F0800F03D042
:1020480010F0800F40F0108113F0400F03D010F013
:10205800400F40F00D8102B010BD13F0010F06D003
:1020680010F4807F03D0226C42F00102226413F046
:10207800040F04D019B1226C42F00202226413F05A
:10208800020F04D019B1226C42F00402226413F04A
:10209800080F07D010F0200F00D119B1226C42F0C0
:1020A80008022264226C002AD5D013F0200F02D037
:1020B80010F0200F29D123685B6903F04003226CDC
:1020C80012F0080F00D163B32046FFF711FD236813
:1020D8005B6913F0400F20D0226802F1140353E823
:1020E800003F23F04003143242E800310029F3D1C5
:1020F800A36B73B1604A1A65A06BFEF7D6FA002885
:10210800A9D0A06B036D9847A5E72046FFF706FF07
:10211800D1E72046FFF7CCFE9DE72046FFF7C8FE33
:1021280099E72046FFF7C4FE0023236493E713F0E2
:10213800100F82D010F0100F3FF47FAF00230193EF
:102148001368019353680193019B536913F0400F7F
:1021580050D0A26B13685B689BB2002B3FF47BAF37
:10216800A18D99427FF677AFE385D369B3F5807F78
:1021780037D0226802F10C0353E8003F23F4807340
:102188000C3242E800310029F3D1226802F114032D
:1021980053E8003F23F00103143242E800310029DC
:1021A800F3D1226802F1140353E8003F23F04003FF
:1021B800143242E800310029F3D1202384F83E305C
:1021C80000232363226802F10C0353E8003F23F045
:1021D80010030C3242E800310029F3D1A06BFEF75E
:1021E8001AFAA18DE38D9BB2C91A89B22046FFF76E
:1021F80094FE30E7A18DE38D9BB2C91A89B2E38DB5
:102208009BB2002B3FF427AF00293FF424AF22688C
:1022180002F10C0353E8003F23F490730C3242E8B8
:1022280000300028F3D1226802F1140353E8003F7C
:1022380023F00103143242E800300028F3D12023B0
:1022480084F83E3000232363226802F10C0353E82C
:10225800003F23F010030C3242E800300028F3D18D
:102268002046FFF75AFEF6E62046FFF76FFCF2E637
:102278002046FFF709FEEEE6131F000808B5806B3D
:10228800036B012B02D0FFF712FE08BD818D4908B0
:10229800FFF743FEF9E708B50346806B1B681B6828
:1022A80013F4807F2BD10023C385026802F10C034D
:1022B80053E8003F23F480730C3242E800310029D0
:1022C800F3D1026802F1140353E8003F23F001033D
:1022D800143242E800310029F3D1026802F11403F4
:1022E80053E8003F23F04003143242E8003100294C
:1022F800F3D1202380F83E30036B012B05D0036B0C
:10230800012B0FD000F02CFB08BD026802F10C0372
:1023180053E8003F23F010030C3242E80031002953
:10232800F3D1ECE7818DFFF7F8FDEDE730B583B029
:10233800044613468162828500250564222280F8BE
:102348003E20826B2048D063A26B20481064A26BA9
:102358001F48D064A26B156520680A46011DA06B52
:10236800FEF724F9019523681A6801925B680193C6
:10237800019B84F83C5023695BB1226802F10C038D
:1023880053E8003F43F480730C3242E800310029DF
:10239800F3D1226802F1140353E8003F43F001032C
:1023A800143242E800310029F3D1226802F1140303
:1023B80053E8003F43F04003143242E8003100295B
:1023C800F3D1002003B030BD9F2200088522000809
:1023D800BB1E000808B590F83E30DBB2202B0DD1AB
:1023E80071B17AB190F83C30012B0DD0012380F8FF
:1023F8003C3000230363FFF799FF00E0022008BD8B
:102408000120FCE70120FAE70220F8E700B583B0D5
:1024180000230093214A116B41F400111163116BE1
:1024280001F40011009100990193116B41F48001AE
:102438001163126B02F480020192019A1848194A3A
:1024480002604360802282604FF40072C2604FF4E1
:102458008062026143618361C36103620422426254
:1024680003228262C3620363FEF73AF890B900223E
:1024780011461020FDF784FF1020FDF791FF002280
:1024880011461120FDF77CFF1120FDF789FF03B0ED
:102498005DF804FB00F066FAE9E700BF0038024087
:1024A80044000020106402402DE9F0418AB0002465
:1024B800059406940794089409940194354B1A6B73
:1024C80042F004021A631A6B02F004020192019AA4
:1024D80002941A6B42F080021A631A6B02F08002AF
:1024E8000292029A03941A6B42F001021A631A6B61
:1024F80002F001020392039A04941A6B42F002025A
:102508001A631B6B03F002030493049BDFF88880B3
:1025180022464FF400514046FEF7B0FA1F4F2246BC
:1025280049F603113846FEF7A9FA0122F021384688
:10253800FEF7A4FA1A4D012240F207412846FEF799
:102548009DFA22464FF440712846FEF797FA4FF459
:1025580000530593012606960794089405A940465A
:10256800FEF7A4F949F6F313059306960794089421
:1025780005A93846FEF79AF940F2077305930696BF
:102588000794089405A92846FEF790F90AB0BDE813
:10259800F08100BF003802400008024000000240FD
:1025A8000004024008B5002211461C20FDF7E8FE91
:1025B8001C20FDF7F5FE08BD08B50A46044B33F8A4
:1025C8001010044B53F82000FEF758FA08BD00BF5E
:1025D800B83200080800002030B595B0302200213C
:1025E80008A800F06FFD0024039404940594069451
:1025F800079401941B4B1A6C42F080521A641B6CAE
:1026080003F080530193019B0294174B1A6842F41C
:1026180040421A601B6803F440430293029B012363
:1026280008934FF48033099302250E954FF48003E5
:102638000F93082310939023119312950423139357
:1026480008A8FEF72BFA0F230393049505944FF47B
:10265800805306930793294603A8FEF789FC15B013
:1026680030BD00BF003802400070004010B504467D
:102678000368B3F1804F04D022680F4B9A420FD001
:1026880010BD0E4A136801331360C72BF4D91346E3
:1026980000221A604FF400510948FEF7F5F9EBE7FC
:1026A800084A136801331360B3F57A7FE8D31346F9
:1026B80000221A60E4E700BF00040040A8000020E0
:1026C80000080240A400002038B50378012B35D05B
:1026D800022B64D0032B00F09380624C002202216D
:1026E8002046FEF7CBF9002201212046FEF7C6F965
:1026F80000224FF400412046FEF7C0F900224FF4B3
:1027080080512046FEF7BAF9574D00224FF48071E8
:102718002846FEF7B3F900224FF400712846FEF769
:10272800ADF900224FF480712046FEF7A7F9002288
:102738004FF400612046FEF7A1F938BD494C00224C
:1027480002212046FEF79AF9012211462046FEF79B
:1027580095F900224FF400412046FEF78FF9012237
:102768004FF480512046FEF789F93F4D00224FF47F
:1027780080712846FEF782F900224FF4007128463E
:10278800FEF77CF900224FF480712046FEF776F9B7
:1027980000224FF400612046FEF770F9CDE7314C76
:1027A800002202212046FEF769F900220121204675
:1027B800FEF764F900224FF400412046FEF75EF967
:1027C80000224FF480512046FEF758F9264D00228A
:1027D8004FF480712846FEF751F901224FF4007139
:1027E8002846FEF74BF900224FF480712046FEF789
:1027F80045F901224FF400612046FEF73FF99CE7B6
:10280800184C012202212046FEF738F90022012146
:102818002046FEF733F901224FF400412046FEF727
:102828002DF900224FF480512046FEF727F90E4D6E
:1028380001224FF480712846FEF720F900224FF458
:1028480000712846FEF71AF901224FF480712046DC
:10285800FEF714F900224FF400612046FEF70EF946
:102868006BE700BF000002400004024010B5FDF70E
:1028780015FDFFF7B1FEFFF717FEFFF7C7FD00F0E4
:10288800FBF900F071F800F055F900F08BF9FFF74B
:1028980089FE2B48FEF7D8FE2A48FEF7D5FE2A48BF
:1028A8000268D36843F01003D360284B1A7828498C
:1028B800FFF790FD14E0264A0021D1540133DBB222
:1028C800244A1278D2B29A42F5D80023214A1370CA
:1028D800214A13701D4B1A781D491B48FFF77AFDD2
:1028E8001D4B1B78002BF5D01A4B1A78184C214633
:1028F8001548FFF713FA2046FFF7E6FEA0780138DF
:1029080000EBD0700021C0F34700FFF755FE1423F9
:102918000122A1181148FEF7F8FC104B93F851302A
:10292800DBB2032BF9D00A4B9878013800EBD07052
:102938000121C0F34700FFF73FFE0023C0E700BFB7
:10294800B40100206C010020BC0200201800002007
:10295800AC0000201101002010010020140100200B
:10296800704770477047000008B50E480E4B03606B
:102978004FF48273436000238360C3600361436143
:102988004FF4007282612022C26103624362836253
:102998000A23C362FEF75AFC00B908BDFFF7E2FF3D
:1029A800FBE700BF140100200038004010B588B0D4
:1029B8000023039304930593069307930268194B26
:1029C8009A4201D008B010BD0024019403F50033E9
:1029D8001A6C42F480421A641A6C02F48042019222
:1029E800019A02941A6B42F002021A631B6B03F0FD
:1029F80002030293029B4FF42043039302230493A0
:102A0800032306930523079303A90748FDF74EFF01
:102A1800224621462420FDF7B3FC2420FDF7C0FC04
:102A2800D0E700BF003800400004024082B0002117
:102A380000910B4B5A6C42F480425A645A6C02F46F
:102A480080420092009A01911A6C42F080521A64F6
:102A58001B6C03F080530193019B02B0704700BFC9
:102A6800003802407047FEE7FEE7FEE7FEE77047E2
:102A78007047704708B5FDF72BFC08BD08B502483C
:102A8800FDF726FE08BD00BF5C02002008B502481D
:102A9800FDF71EFE08BD00BFFC01002008B5024876
:102AA800FEF712FE08BD00BFB401002008B50248B9
:102AB800FEF70AFE08BD00BF6C01002008B50248F9
:102AC800FEF700FD08BD00BF1401002000B583B06B
:102AD800124B1B681A6812F0100F05D10F48FFF748
:102AE8008FFA03B05DF804FB002201921A68019284
:102AF8005A680192019A1A685B680848FFF75CF9FE
:102B0800074B1B685A68074B1B789B1ADBB2064AAF
:102B18001370064B01221A70E0E700BFBC020020C8
:102B28005C02002018000020110100201001002084
:102B38007047000000B587B0002302930393049305
:102B480005930093019316484FF080420260472294
:102B58004260836041F28832C260036180238361EE
:102B6800FEF7BEFE90B94FF48053029302A90C48B9
:102B7800FEF7EEFE68B90023009301936946084802
:102B8800FEF766FF40B907B05DF804FBFFF7EAFE01
:102B9800E9E7FFF7E7FEEEE7FFF7E4FEF3E700BF3C
:102BA800B401002000B587B0002302930393049377
:102BB8000593009301931548154A02604722426025
:102BC800836041F28832C26003618361FEF788FE48
:102BD80090B94FF48053029302A90C48FEF7B8FE4F
:102BE80068B900230093019369460848FEF730FF4F
:102BF80040B907B05DF804FBFFF7B4FEE9E7FFF75B
:102C0800B1FEEEE7FFF7AEFEF3E700BF6C01002070
:102C18000004004000B583B00368B3F1804F05D0CD
:102C2800134A93420FD003B05DF804FB00230093CE
:102C3800104B1A6C42F001021A641B6C03F001037A
:102C48000093009BEFE7002101910A4B1A6C42F0B8
:102C580002021A641B6C03F002030193019B0A46EB
:102C68001D20FDF78DFB1D20FDF79AFBDBE700BF5C
:102C7800000400400038024008B50A480A4B0360C7
:102C88004FF4E133436000238360C36003610C2287
:102C980042618361C361FFF711F800B908BDFFF70E
:102CA80061FEFBE7BC0200200044004030B589B05B
:102CB8000023039304930593069307930268374B05
:102CC8009A4201D009B030BD04460025019503F5AC
:102CD800FA331A6C42F400321A641A6C02F40032A5
:102CE8000192019A02951A6B42F001021A631B6B5A
:102CF80003F001030293029B0C2303930223049322
:102D0800032306930723079303A92548FDF7CEFD60
:102D18002448254B03604FF0006343608560C5601D
:102D28004FF48063036145618561C5614FF4803369
:102D380003624562FDF7D4FB50BB1A4BA3639C6347
:102D48001A481B4B03604FF00063436040238360C5
:102D58000023C3604FF48062026143618361C361F1
:102D68004FF4803202620422426203228262C3620A
:102D78000363FDF7B5FB70B90C4B63639C630022DA
:102D880011462620FDF7FCFA2620FDF709FB99E7F6
:102D9800FFF7E8FDD1E7FFF7E5FDEDE70044004068
:102DA800000002405C02002088600240FC01002014
:102DB800A0600240DFF834D00D480E490E4A0023C7
:102DC80002E0D458C4500433C4188C42F9D30B4AD7
:102DD8000B4C002301E013600432A242FBD3FFF73F
:102DE800A7FE00F0C1F9FFF741FD7047000002207F
:102DF8000000002024000020EC32000824000020FD
:102E080098040020FEE700002DE9F047089D0C46D5
:102E1800002B4ED194468C458646B2FA82F262D98E
:102E28004AB1C2F12003914020FA03F30CFA02FCE4
:102E3800194300FA02FE4FEA1C471FFA8CF6B1FB51
:102E4800F7F44FEA1E4307FB141143EA014304FB5E
:102E580006F199420AD91CEB030304F1FF3080F014
:102E68001381994240F21081023C6344591A1FFAB7
:102E78008EF3B1FBF7F007FB101143EA014300FBA7
:102E880006F69E420AD91CEB030300F1FF3180F0DD
:102E9800FD809E4240F2FA80634402389B1B40EA60
:102EA800044000211DB1D3400022C5E90032BDE82D
:102EB800F0878B4205D90DB1C5E90001002108460C
:102EC800F5E7B3FA83F1002946D1A34202D3904231
:102ED800C0F0F180861A64EB03030120002DE6D0D0
:102EE800C5E90063E3E7002A40F09180A1EB0C04F8
:102EF8004FEA1C481FFA8CF70121B4FBF8F64FEA99
:102F08001E4308FB164443EA044307FB06F09842B5
:102F180008D91CEB030306F1FF3402D2984200F2F1
:102F2800CE8026461C1A1FFA8EF3B4FBF8F008FB75
:102F3800104443EA044300FB07F79F4208D91CEBFF
:102F4800030300F1FF3402D29F4200F2B180204611
:102F5800DB1B40EA0640A5E7C1F120068B4022FAB8
:102F680006F71F4320FA06FC04FA01F343EA0C03B0
:102F7800F44000FA01F8380C4FEA1349B4FBF0FEAC
:102F88001FFA87FC00FB1E4449EA04440EFB0CF9B7
:102F9800A14502FA01F20AD93C190EF1FF3A80F074
:102FA8008580A14540F28280AEF1020E3C44A4EB3C
:102FB80009041FFA83F9B4FBF0F300FB134449EA50
:102FC800044403FB0CFCA44507D93C1903F1FF306A
:102FD80068D2A44566D9023B3C4443EA0E40A0FBB4
:102FE8000293A4EB0C049C42CE469C4652D34FD08D
:102FF80055B1B8EB0E0364EB0C0404FA06F6CB40AB
:10300800CC401E43C5E900640021BDE8F087C2F149
:10301800200320FA03F10CFA02FC24FA03F394408B
:103028000C434FEA1C4800FA02FE1FFA8CF7B3FB68
:10303800F8F008FB1031230C43EA014300FB07F1C9
:10304800994208D91CEB030300F1FF362CD29942B0
:103058002AD9023863445B1AA4B2B3FBF8F108FB1F
:10306800113344EA034401FB07F3A34208D91CEBDC
:10307800040401F1FF3613D2A34211D90239644482
:10308800E41A41EA004138E70446EFE6084605E756
:10309800C845ADD2B9EB020E63EB070C0138A7E7C0
:1030A8003146EDE7034698E73046D4E7D6467EE753
:1030B800634402384CE70646234608460EE7023EBC
:1030C80063442FE7830730B547D0541E002A3ED00B
:1030D800CAB2034601E0013C39D303F8012B9D072E
:1030E800F9D1032C2CD9CDB205EB05250F2C05EB16
:1030F800054535D9A4F1100222F00F0C03F1100E8A
:10310800E6444FEA121C1A46156055609560D56072
:1031180010327245F8D10CF1010214F00C0F03EBD8
:10312800021204F00F0C13D0ACF1040323F00303D4
:103138000433134442F8045B9A42FBD10CF00304B5
:103148002CB1C9B21C4403F8011B9C42FBD130BD11
:1031580064461346002CF4D1F9E703461446C0E749
:103168001A46A446E0E700BF70B50F4B0F4DAB42BF
:10317800A3EB050607D0B610002455F8043B01342C
:103188009847A642F9D800F083F8094D094B5E1B11
:10319800AB424FEAA60606D0002455F8043B01349A
:1031A8009847A642F9D870BDE0320008E03200081E
:1031B800E0320008E8320008704700BF704700BFDF
:1031C800024B13B1024800F005B870470000000038
:1031D800E9310008002301461A46184600F014B8E1
:1031E80038B5074D074C2C1BA41005D0013C55F8E9
:1031F800043D9847002CF9D1BDE8384000F04EB89E
:10320800EC320008E83200082DE9F047DFF874A036
:103218000646DAF8000098460F469146FFF7CCFFBD
:10322800194B1C6824B365681F2D24DC5EB96B1C20
:103238000235DAF80000636044F82570FFF7BEFF36
:103248000020BDE8F08704EB85010123C1F88890D0
:10325800D4F88821AB401A43022EC4F88821C1F85B
:103268000881E4D1D4F88C211A43C4F88C21DEE714
:10327800064C1C60D7E7DAF80000FFF79FFF4FF015
:10328800FF30DEE7200000200403002008030020B0
:10329800F8B500BFF8BC08BC9E467047F8B500BF3B
:0832A800F8BC08BC9E4670470B
:1032B0000006101600061016000402008000200010
:1032C00000000000010203040000000000000000F4
:0832D0000102030406070809CE
:0832D80038FBFF7F010000003C
:0832E000C931000835020008A5
:0432E8000D020008CB
:1032EC000100000010000000000402400004024035
:1032FC000000024000000240640000000024F400C2
:04330C00000300209A
:0400000508002DBD05
:00000001FF
